:020000041000EA
:1000000000B5324B212058609868022188439860DF
:10001000D860186158612E4B002199600221596106
:100020000121F02299502B49196001219960352056
:1000300000F044F80222904214D00621196600F024
:1000400034F8196E01211966002018661A6600F04E
:100050002CF8196E196E196E052000F02FF8012189
:100060000842F9D1002199601B49196000215960AB
:100070001A491B48016001219960EB211966A021F2
:10008000196600F012F800219960164914480160C1
:100090000121996001BC002800D000471248134993
:1000A000086003C880F30888084703B5996A0420EC
:1000B0000142FBD001200142F8D103BD02B5186610
:1000C0001866FFF7F2FF186E186E02BD00000240BE
:1000D000000000180000070000035F00212200005C
:1000E000F4000018222000A00001001008ED00E03C
:1000F00000000000000000000000000074B24E7A12
:1001000000200420F7010010C3010010C5010010F9
:10011000C1010010C1010010C1010010C101001097
:10012000C1010010C1010010C1010010C701001081
:10013000C1010010C1010010C9010010CB01001065
:10014000CD010010CD010010CD010010CD01001037
:10015000CD010010CD010010CD010010CD01001027
:10016000CD010010CD010010CD010010CD01001017
:10017000CD010010CD010010CD010010CD01001007
:10018000CD010010CD010010CD010010CD010010F7
:10019000CD010010CD010010CD010010CD010010E7
:1001A000CD010010CD010010CD010010CD010010D7
:1001B000CD010010CD010010CD010010CD010010C7
:1001C00000BE00BE00BE00BE00BE00BEEFF3058054
:1001D000103800BEF2EB887198B10410B8B1041069
:1001E0003802001090A31AE71E481F49086006C88D
:1001F00081F3088810471D480068002801D019487D
:10020000F3E70DA40ECC002902D000F012F8F9E7B4
:100210001749184A002000E001C19142FCD116495B
:100220008847164988471649884700BEFDE701C937
:1002300001C29A42FBD37047B8B10410E00000201D
:10024000B01B002088CC0410000004200000042013
:1002500088CC0410001004200010042000000000CE
:10026000704700000000000008ED00E0000000D032
:10027000B01B002038E600206DE80010B108001027
:1002800065E80010F8B5C0460448054B10B5834238
:1002900003D0044B002B00D0984710BDB01B0020AA
:1002A000B01B00200000000006480749091A8B1007
:1002B000C90FC91810B5491003D0044B002B00D04A
:1002C000984710BDB01B0020B01B002000000000AC
:1002D00010B5074C2378002B09D1FFF7D5FF054B4C
:1002E000002B02D0044800E000BF0123237010BDA2
:1002F000A01E0020000000001C200110054B10B5BE
:10030000002B03D00449054800E000BFFFF7CCFFF5
:1003100010BDC04600000000A41E00201C200110DB
:1003200010B508F00DFA002804D10021002008F0D3
:10033000F7F910BD01480EF02BFCF6E72020011064
:10034000012210B5044B002019785140197008F0B3
:10035000E7F9012010BDC0462EE60020F8B5DE46C4
:100360004E4645465746E0B500F08AF9002000F0B9
:1003700091F9384B002518009A4600F097F900F0E3
:10038000C7F800239846344B04009946334B344E4B
:100390009B46FA20800001F0EBFE00F0B9F8070060
:1003A000A0423AD0681C06210CF0E2F90D0000F0E2
:1003B00067F9002000F06EF9504600F077F901204F
:1003C00000F068F9484600F071F900239846002DC6
:1003D00008D000243000013400F068F9AC42F9DBA9
:1003E000D84501DC3C00D4E700F098F800F048F96B
:1003F000002000F04FF9484600F058F9012000F0C5
:1004000049F9184800F052F9174801F0B1FEF0BC64
:10041000BB46B246A946A046F8BDFA239B009C46BF
:10042000681C0621E0440CF0A3F90D0000F028F947
:10043000002000F02FF9504600F038F9012000F0BC
:1004400029F9484600F032F9002DC2D1D845C9DD5E
:10045000CAE7C0464420011058200110871300004D
:10046000A42101106420011088130000D021012371
:10047000090615484A6810B54968046892081A4088
:10048000944214D0C9080B40D31A59424B410F492A
:100490005B000C68013BE3180B60FA230C689B00BF
:1004A0009C4206DB0A4C0B68A44663440B60026066
:1004B00010BD0B68002BFADAFA24A400A4460B68DE
:1004C00063440B60F3E7C0463C3B00201837002034
:1004D00018FCFFFF10B5022002F03AFE032002F0E4
:1004E00037FED0230422094C1B069A6204329A621A
:1004F0000C2123000220073A02F090FD2300012284
:100500000C21032002F08AFD10BDC0466D040010CE
:10051000014B18687047C046183700200022014B75
:100520001A60704718370020F0B5D6464F46464649
:100530000F230200C0B59A43130084B008226C4612
:1005400049B20B430001134301436373114300237A
:100550000D22374D9846A1736A4400932721280045
:10056000013310F05DFF6B460F24FA2600275B7BFA
:100570006C44760030003900237001F0E7FD04235D
:100580009A465246994623782721134323704346BF
:10059000220000932800013310F042FF30003900A0
:1005A00001F0D4FD4A462378272193432370434624
:1005B000220000932800013310F032FF3000390090
:1005C00001F0C4FD43460E2200936A44272128000F
:1005D000013310F025FF6B469B7B30003900237000
:1005E00001F0B4FD5246237827211343237043467C
:1005F000220000932800013310F012FF3000390070
:1006000001F0A4FD4A4623782721934323704346F3
:10061000220000932800013310F002FF300039005F
:1006200001F094FD04B0E0BCBA46B146A846F0BD66
:100630005813002010B500210320FFF775FF00219B
:100640000320FFF771FF00210320FFF76DFF00215A
:100650000220FFF769FF00212820FFF765FF002136
:100660000C20FFF761FF00210620FFF75DFF00214E
:100670000120FFF759FF022001F07AFD10BDC046AE
:1006800010B500210120FFF74FFF022001F070FD9F
:1006900010BDC046434258413F2310B540429843E5
:1006A0000021C030FFF740FF10BDC04610B5040068
:1006B0000078002806D001210134FFF735FF2078AB
:1006C0000028F8D110BDC04610B5FFF721FF024B3E
:1006D0001860012010BDC046443B0020F0B5DE4646
:1006E00057464E464546E0B587B000F075F980465E
:1006F00000F078F9834600F07BF9059001F080FE68
:10070000524B02901A000391994611685268029B5D
:10071000039C5B1A9441180021000CF05FFB00223F
:100720004B4B0CF092FA0CF061FB4A4B071C18681B
:100730000CF010FB484B494A0CF0A1FA0CF056FBA8
:10074000474A041C116892460CF0E3FB391C0CF07C
:10075000E6FB444E051C31680CF0DBFB391C0CF049
:10076000DEFB5246404F41493860356014604A46CE
:10077000029B039C3E48136054603E4A3E4B0EF081
:1007800091FA3E480EF004FA53461B6840469946DB
:100790000CF01CFC0CF070FC394A3A4B0CF06FFA70
:1007A0000CF024FB38490CF0CEFB0CF065FC040087
:1007B00048460D000CF060FC22002B0000900191D7
:1007C000324933480EF06EFA58460CF055FC2C4A6C
:1007D0002C4B0CF054FA0CF009FB2B490CF0B3FB3A
:1007E0000CF04AFC36680400301C0D000CF044FC90
:1007F00022002B0000900191264927480EF052FA62
:1008000005980CF039FC1E4A1E4B0CF038FA0CF01F
:10081000EDFA1D490CF097FB0CF02EFC3E6804002D
:10082000301C0D000CF028FC2200009001912B00E0
:100830001A491B480EF036FA0A200EF05DF907B08F
:10084000F0BCBB46B246A946A046F0BD881D0020BC
:1008500080842E41443B00203D0AD73F0AD7A37035
:10086000403B002014260020102600208C20011080
:10087000942001108020011070200110B020011080
:10088000399D52A246DF913F0000A543EC200110A4
:10089000F420011020210110282101105421011001
:1008A0005C21011010B5FFF719FF012010BDC046F3
:1008B00030B597B00EF01CF931480EF069F900F030
:1008C00073F8FFF707FEFFF72BFD2E492E4810F0B7
:1008D0007DFD0321002002F02DFB0321012002F009
:1008E00029FB00220121002002F03EFB0022012111
:1008F000012002F039FBFFF79DFE01F081FD00248D
:10090000224B1860596001F039FA04AB0293204B76
:100910000194009364225242D31701F0B3FC01F01A
:100920002DFA0AAB02931B4B1B4A00930194002340
:1009300001F0A8FC01F022FA10AB0293174B184A01
:1009400000930194002301F09DFCFFF707FD11F0D7
:10095000DDF814490BF00CFFF539FF390C0000F0FD
:100960003BF8050000F038F80121A04200DB00212F
:10097000601BC317C018C9B2584000F03FF8E6E743
:100980008C210110A086010058130020881D002032
:10099000C9060010A508001050C300004103001054
:1009A00040420F00E903000010B50F2002F0D0FB19
:1009B000D024802324061B0263620E2002F0C8FBB1
:1009C0008023DB01636201F01BFD024B186059605C
:1009D00010BDC046901D0020014B18687047C046EE
:1009E00000D50020014B18687047C046D4D40020C1
:1009F000014B18687047C046D0D40020F0B5DE46E1
:100A000057464E464546E0B585B000900191002915
:100A100000D12FE1D023802204001B06D2015A61AD
:100A200020000CF097F9FA23DB009C4200DA01E188
:100A3000944A954B0CF023F90CF0D8F9814620002C
:100A40000CF0C4FA494603900CF063FA8F49029007
:100A500048460CF078FA8E490CF061FA0CF052FB23
:100A600049460CF05CFA83468A4B002600259A46DC
:100A7000894C3BE053461B680133524630001360FB
:100A80000CF0A4FA4946071C0CF08CFA00284AD056
:100A9000FC21484689050CF056FA011C381C0CF064
:100AA00081FA002800D1A4E0794958460CF04BFAAD
:100AB000011C281C0CF030FA7849051C0CF080FA57
:100AC000002800D0754D5946281C0CF03CFA011C3A
:100AD000201C0CF021FA7249041C0CF071FA002859
:100AE00000D06F4C009B0136B34254D08023D027F6
:100AF0001B0298463F060A2000217B6101F026FB7D
:100B00004346211CBB6167480CF009FA0CF080FADF
:100B10000A38C11701F01AFB019B002BAAD15346DA
:100B20001B68013BA9E7029B381C191C98460CF076
:100B30003FFA0028D6D0FC21484689050CF003FA7C
:100B400041460CF0E9F9011C381C0CF02BFA002886
:100B500060D04F4958460CF0F6F9011C281C0CF0E7
:100B6000DBF94E49051C0CF02BFA002800D04B4D48
:100B70005946281C0CF0E7F9011C201C0CF0C9F99F
:100B80004549041C0CF00EFA0028ABD0009B01363E
:100B9000414CB342AAD101F033FC434B04000D0099
:100BA00098461A685B68801A99410CF017F9002280
:100BB0003E4B0CF04AF80CF019F9071C011C039885
:100BC0000CF0ADF93A4B061C196899460CF0A1F9E6
:100BD000391C0CF0A4F9374B18604B461E60434695
:100BE0001C605D6005B0F0BCBB46B246A946A0469D
:100BF000F0BD314958460CF0A6F9011C281C0CF038
:100C00008BF90021051C0CF0CDF9002800D15AE722
:100C1000002558E7284958460CF095F9011C281C76
:100C20000CF07AF90021051C0CF0BCF900289FD0CB
:100C300000259DE7214A224B0CF021F80CF0D6F854
:100C4000814620000CF0C2F9494603900CF061F98E
:100C50000E49029048460CF076F90D490CF05FF908
:100C60000CF050FA49460CF05AF98346002C00DD8E
:100C7000FAE690E7D02380221B06D20104009A6195
:100C8000CEE6C046333333333333D33F0000C04066
:100C90000024F44900D5002000803B440050434824
:100CA00000409C4600247449901D002080842E4101
:100CB000D4D40020D0D400200024F4C99A99999962
:100CC0009999C93F10B505F0DBF910BD0123F0B5C6
:100CD0000B7283B0040005F007FA0500431C0DD128
:100CE0001249134B1A685B68009201938A60CB60CB
:100CF000236820005B69984703B0F0BD01F080FBDA
:100D0000FA2206000F0000232800002192000CF0B8
:100D1000E3F836184F41002F03DB04498E60CF60A3
:100D2000E6E70126034F7642F7E7C046501200205F
:100D3000D8210110FFFFFF7F70B5094D04002B780B
:100D4000002B08D00123074920000B722368DB69C0
:100D50009847012070BD02F0D3FA01232B70F1E710
:100D60002BE600204012002010B50400036804495F
:100D70009B699847236820001B6A0249984710BD69
:100D80005012002040120020002070477047C046DB
:100D900010B501F035FB002905D0FA22002392009E
:100DA0000BF04CFD10BDFA2189000BF009FDF9E7AD
:100DB000020083680832002B04D107E01A001B6888
:100DC000002B03D09942F9D1002003E00023012039
:100DD00011600B607047C0468368002B08D09942B1
:100DE00002D107E0994207D01A001B68002BF9D105
:100DF00000207047020008320B6801201360F8E7FA
:100E00004368021D002B04D107E01A001B68002B69
:100E100003D09942F9D1002003E0002301201160A2
:100E20000B6070474368002B08D0994202D107E05D
:100E3000994206D01A001B68002BF9D10020704798
:100E4000021D0B6801201360F9E7C046F8B547465C
:100E5000CE468368804680B5002B29D008234344C2
:100E6000994601F0CDFA43469E6804000D00002E1D
:100E700058D000234F469C46B268F36820002900F2
:100E8000801A9941002902DB14001D00BC4637007E
:100E90003668002EF0D16346002B43D019684046D7
:100EA0000A681A604B68984743469B68002BD8D164
:100EB00043465C68002C31D00025237A002B29D0D2
:100EC000210063682572404698472468002CF4D1BD
:100ED000174B1868596843469E68002E04D112E0EB
:100EE00020002900002E0ED0330002009C68DD682F
:100EF0000B00121BAB413668002BF1DCF2D1002A4B
:100F0000EED1002EF0D1434618615961C0BCB946FC
:100F1000B046F8BD2468002CCFD1D9E7044B18683F
:100F20005968F0E743465C68002CC5D1D0E7C0465D
:100F3000D8210110F0B5C646804600B501F060FA30
:100F400043469B6806000F00002B0AD09968DA68B8
:100F500034003D00641A9541002D10DA1B68002B07
:100F6000F4D143465B68002B03D10AE01B68002BD9
:100F700002D0187A0028F9D080BCB846F0BD012014
:100F8000FAE70020F8E7C0468023DB051868000F69
:100F90007047C0460FB400B5084883B00DF0F8FDA7
:100FA000049B002B07D005A9180001910DF026FC29
:100FB00003480DF0EDFD01200DF038FCA8210110D3
:100FC000C4330110104A114B10B512184B4199004F
:100FD000900F0843990F504059400D4A0D4B0BF0AC
:100FE0007BFF03004A01C00E1043CA0E5840514017
:100FF000094B0A4A0BF070FF03004A00C00F104370
:10100000CA0F5840514010BD157C4A7FB979379EB0
:10101000B9E5E41C6D4758BFBB49D094EB113113BF
:10102000F0B504684568060023002A00C6468068BB
:10103000F16803430A4300B5134304D101F0E0F91A
:1010400003000B43FAD02A06230A60402706134305
:101050002A0A3A43070CBC4669404B40984663460F
:101060000F041F43424003045A4043467B40326012
:101070007360C20E4B011343C90E40010843B360B5
:10108000A10FAB000B43A200A4185D41EB01620E5F
:101090001A43E4016B0E2343F0601E0017005B0F40
:1010A000D100F00019438019794180BCB846F0BDE9
:1010B000F0B5DE4657464E464546E0B5B84B8DB0D6
:1010C0001B78002B00D1ECE008AB9846B54BB64C32
:1010D0000393B64BB64F04931022049940460CF08C
:1010E000BDF8B44B1B78DBB2059301F089F9FFF72B
:1010F00069FF089B584043465B6808905940434647
:101100005960AD4B9B69DB0400D5C0E00BF04CFA95
:10111000EFF305839B46B9465F46A84B2568666892
:101120009A4628003100002F1AD001F073F9EFF32E
:10113000108272B653461B68002BFBD0BFF35F8F43
:101140002368AB420FD0BFF35F8F00215346196075
:1011500082F310882568666828003100002FE4D1EA
:1011600000F08CFFE3E76368B342ECD10125924BBA
:101170001600D8694F46054001F042F90A220023C3
:1011800080185941002900DA7DE03A687B6892189E
:101190005B412060616028001C0013001043009335
:1011A000019438607C60BFF35F8F0024834A146031
:1011B00086F310880199FFF705FF43469B68804A34
:1011C00058404346DB689446594043469860D9608E
:1011D000039B7C4A1B78DB006344986890425ED096
:1011E0000021FFF7EFFE089B584043465B680890DC
:1011F000594043465960EFF3108572B66F4A136841
:10120000002BFCD0BFF35F8F6A4B059A1B7893428B
:1012100019D0049940460B6840681A00089B5A4050
:10122000089242464B68434053608B6800934346A4
:10123000009A9B685A40CB684146C96800934B406E
:1012400041468A60CB604046FFF7EAFE1022060066
:101250000C00049841460CF001F8564B554A1B7897
:101260000133DBB21370BFF35F8F0022534B1A6060
:1012700085F31088300021000DB0F0BCBB46B246AB
:10128000A946A046F0BD01204F4940427DE74F4BA3
:10129000DA6BE0231340402B00D039E736E79C603F
:1012A0009EE74B4B9946186859684A4B9C464A4BF7
:1012B0009846830E8F011F438601030C0D041D43C6
:1012C00032003B00040412196B41121A8B41614633
:1012D00001C98C4600210090019100980199801865
:1012E0005941C445E5D14B4618605960FFF76AFE85
:1012F00008AB9846089B584043465B6808905940A5
:10130000434606A8596000F021F906980799FFF7AF
:1013100059FE43469B6858404346DB685940434664
:101320009860D960244B9B69DB0436D5274BDA6B78
:10133000E0231340402B30D0EFF305839A4640233F
:101340000024039300231D4F00930194164C0023A7
:101350009B4653462568666828003100002B19D04B
:1013600001F058F8EFF3108972B63B68002BFCD0FF
:10137000BFF35F8F2368AB4230D0BFF35F8F5B4614
:101380003B6089F310885346256866682800310061
:10139000002BE5D100F072FEE4E70BF005F9CBE796
:1013A00032E6002028E60020981D0020C80000201A
:1013B000D800002029E6002000000640300100D0BF
:1013C00000000340FFFFFF00FFFFFF7F00800040A1
:1013D000C0000020001C0420002004206368B342E9
:1013E000CBD1009A019B1000190080185941484B3D
:1013F000DA690123134003430093019101F000F8DF
:101400000A22002380185941002949DB039B2060F0
:101410006160012B3AD1009801993E4F38607960A4
:10142000BFF35F8F00233C4D2B6089F31088FFF7DB
:10143000C9FD089B584043465B68089059404346A5
:10144000596000F0DDFFFFF7BDFD43469B68584043
:101450004346DB68594043469860D960EFF31086F5
:1014600072B62B68002BFCD0BFF35F8F2B4B1B7821
:10147000002B19D02A4B03932A4B0493BFF35F8FA1
:101480000022254B1A6086F3108825E6BFF35F8F94
:1014900000233B6089F31088039B013B039356E7CD
:1014A000012021494042B1E7204BDA681F2A23D0AE
:1014B0005A691F2A22D0DA691F2A25D05B6A1F2B9E
:1014C0001FD00BF071F8FF22FF231549DB000A70D3
:1014D000174A03919446052263445A604046FFF739
:1014E0009FFD104B10221800414604930BF0B6FEEE
:1014F00001230A4A1370C1E700230393039BDAB266
:10150000E3E71C3B0393F9E702230393F6E7C046A6
:1015100000000640D8000020300100D032E6002054
:1015200028E60020C8000020FFFFFF7F00000340E6
:101530000800034010B5FFF7BBFD10BD10B5024811
:1015400000F0E0F810BDC046D0E4002010B508223D
:1015500001490BF083FE10BDD0E4002030B54B1ED6
:10156000012900D1A7E0664A11780D112C00303412
:101570009F2900D9A2E00470012B00D1BEE00F2109
:10158000147821400C003034092900DD98E04470C3
:10159000022B00D1B2E054782511290030319F2C64
:1015A00000D990E08170032B00D1A7E00F212140EA
:1015B0000C003034092900DD87E0C470042B00D111
:1015C0009CE094782511290030319F2C00D97FE0D0
:1015D0000171052B00D191E00F2121400C00303426
:1015E000092900DD76E04471062B00D186E0D4782D
:1015F0002511290030319F2C00D96EE08171072B15
:1016000000D17BE00F2121400C003034092966DC39
:10161000C471082B00D171E01479251129003031F3
:101620009F2C5FD80172092B68D00F2121400C003C
:101630003034092958DC44720A2B5FD054792511C3
:10164000290030319F2C52D881720B2B56D00F219C
:1016500021400C00303409294BDCC4720C2B4DD0D6
:1016600094792511290030319F2C00D9073101735D
:101670000D2B43D00F2121400C003034092901DD0E
:1016800037310C0044730E2B38D0D1790C11220065
:1016900030329F2900D9073282730F2B2ED00F22B0
:1016A0000A4011003731092A01DC30321100C173C0
:1016B000102B23D010300023037030BD07345AE7BD
:1016C00037310C0063E707316CE737310C0074E702
:1016D00007317DE737310C0085E707318EE7373179
:1016E0000C0095E707319DE737310C00A3E7073180
:1016F000AAE737310C00C4720C2BB1D1C018DAE75D
:10170000D0E4002030B5002589B004000922002172
:1017100001A800950BF09CFD0922002105A8049565
:101720000BF096FD4B236A466846137004A90D2200
:1017300010F0C2FB15210822200069440BF08EFD39
:1017400009B030BDEFF3108072B6034A1368002B66
:10175000FCD0BFF35F8F70472C0100D0BFF35F8FC9
:101760000022024B1A6080F3108870472C0100D0D1
:1017700070B5EFF3108C72B60D4D2B68002BFCD0BA
:10178000BFF35F8F0724CB08C618C05C01230C4051
:10179000A3401C000440034207D103433370BFF34E
:1017A0005F8F2C608CF3108870BD1000FFF7F2FB88
:1017B0002C0100D0F8B54746CE46884680B5EFF3F9
:1017C000108C72B6214D2C68002CFCD0BFF35F8FBB
:1017D0009A422CD8D4080727055D06190124174022
:1017E000BC402C421FD007210127894609E0D408BC
:1017F000055D06194C4639001440A1400C002942F1
:1018000011D001329342F2D201204042BFF35F8FE8
:1018100000220E4B1A608CF3108800280FDBC0BC2E
:10182000B946B046F8BD2C4310003470EEE7BFF364
:101830005F8F00232B608CF31088012040424346C9
:10184000002BECD00898FFF7A5FBC0462C0100D078
:1018500030B5EFF3108C72B60A4C2368002BFCD025
:10186000BFF35F8F07230122CD0819408A40435DF3
:1018700093434355BFF35F8F002323608CF310889D
:1018800030BDC0462C0100D0044A1078431CDBB2A6
:10189000172B00D9102313707047C0466812002020
:1018A00000B5054B83B00100009318221F230348A5
:1018B000FFF780FF03B000BDB821011044280020CD
:1018C0000021044B044ABFF35F8F02C39342FAD155
:1018D0007047C046000100D0800100D0142310B52D
:1018E0000100188804331B88984710BD162310B5D3
:1018F0000100188802331B88984710BDF8B5474689
:10190000CE4680B50F1E19D0142399460433040027
:101910000025012698464B461888434621681B88B7
:10192000984701C4431E9841013540420640AF42EA
:10193000F1D13000C0BCB946B046F8BD0126F8E789
:10194000142370B50400188804331B880D00054962
:10195000984703000020002C01DB0130A040290043
:101960009847C046554200000A4B1968EFF31080B3
:1019700072B60A68002AFCD0BFF35F8F1B68BFF302
:101980005F8F00221A6080F3108840BF0020002182
:101990007047C046DCE50020F0B5DE4657464E46AF
:1019A0004546E0B585B0EFF30582032313409A0066
:1019B00011000392B64A5258904601229A40B54B04
:1019C00091461A6031E043469B881BB2002B00DB36
:1019D0009DE043469B79002B00D0EFE0434608246E
:1019E0001C5F002C00DA17E14246526963009446FE
:1019F0001B19DB0063449C68DD68631C00D113E1A4
:101A0000A54B03999C4661449A6A0B69A01A9B1ADC
:101A1000984200D20C61A04800F0EAFC241A8D41E3
:101A2000002D00DDF8E000D12EE14B469A484363DB
:101A3000434608229B5E9A46002BC4DB424652690D
:101A40005B0093465344DB009B445B469E68DF6823
:101A500000F0CEFC801BB9410029B4DB002F00DA76
:101A6000EDE05B468D4A1B69934200D1E0E04146C0
:101A70005A460820085E5288000410435A465169AD
:101A8000984704000D0023002B4300D1D7E0002D20
:101A900000DBF0E0361BAF4134003D005B469C604C
:101AA000DD600021595E00298DDB43465B69220021
:101AB0009C462B0048004018C00060448668C768F8
:101AC000921BBB41002B00DA7DE7434666460200CD
:101AD0000094019519810CE07B00DB19DB00F31801
:101AE000009801999C68DD68001BA941002904DB6E
:101AF0001A000023D75E002FEEDA5B461F805346A4
:101B0000138043469B881BB2002B00DA61E74346F3
:101B10001A69EFF3108172B61368002BFCD0BFF383
:101B20005F8F43469B8842461BB29A4601235B4225
:101B300093801369BFF35F8F00221A6081F31088CE
:101B40005346002B00DA44E743465B699C46082372
:101B500043449B4653465F0043465744FF000822D8
:101B60009A5E67445E46BC68FD68002A19DB3B004C
:101B70000094019567469C4604E01E000023F25E37
:101B8000002A0BDB0098019953009B18DB00FB181F
:101B90009C68DD68001BA9410029EEDA6346BC465B
:101BA0001F005346338000217B5E3A809A46002B0B
:101BB000D0DA43469B79002B00D10FE70023424641
:101BC0009371434646460821595E08364B1C23D084
:101BD00047468C46556902E006004B1C17D04B0067
:101BE0005B18DB00E8180A00E95E43881BB2002B93
:101BF000F2DA01235B42DC178360C4606245ECD0FB
:101C000031803B89944603803A814B1CE7D164467E
:101C1000B846002C00DBE7E640BF05B0F0BCBB4691
:101C2000B246A946A046F0BD6B1C00D0E8E6F2E63D
:101C30005B465C69200023699847002821D15B46F8
:101C400042461B8813811269EFF3108372B6116844
:101C50000029FCD0BFF35F8F4246594652880A8064
:101C60004246514651801269BFF35F8F00211160D7
:101C700083F31088A7E6084800F0BAFB24184D410A
:101C80000CE765682468FEE6002C00D1CDE6C3E7CA
:101C9000F0D400203C700540004005409919001028
:101CA00070B52E4C2569002D04D00A212C4800F077
:101CB000ABFE70BD2B4E0321300000F077FBE660D9
:101CC000FFF7E2FD284B03229C46D02322701B061F
:101CD0001B6801216370254B6044A3600F238000C3
:101CE00020610220638063694942A180198002312A
:101CF000198647311D83585218315A5275325C3952
:101D000099521832013199521832013199521832D0
:101D100001319952083518329D52023118329952C8
:101D20001832013199521832013199521832013169
:101D300099521832013199521832013199520C4B93
:101D40000C49DC600130356200F0C2FB0121032048
:101D500000F082FB084B1D60A7E7C0466C12002014
:101D6000DCE500200040054040000034FFFF10008B
:101D7000F0D40020991900103860054000487047E1
:101D80006C120020F8B5050018200F000BF008FABF
:101D9000041E3ED0182138000BF020FA01216061AA
:101DA000280000F015FBE5600600FFF76DFDD0226E
:101DB000267012061268184B62709C460122BBB254
:101DC00052426044800063819B1820612281A2807E
:101DD0006380002F0BD079006269C919C9000F4BCD
:101DE00089181380013318329BB28A42F9D1012736
:101DF000B7400B4BB200D45030000A492F6200F0BC
:101E000067FB0121300000F027FB074B9C4665442F
:101E10002F602000F8BDC04640000034FFFF0000E6
:101E2000F0D400209919001038200000114B70B533
:101E3000040098421DD001220F4905788C46AA4023
:101E4000C368012163441A60280000F005FB0B49B8
:101E5000280000F05BFC280000F0B2FA0021237893
:101E6000074A9B00606999500BF0DAF920000BF0EB
:101E7000D7F970BD6C12002038300000991900109D
:101E8000F0D40020F8B51F0008AB1B780400160042
:101E9000002B07D100F0B4FA32003B00121A8B413C
:101EA000002B4CDB2269EFF3108072B61368002B15
:101EB000FCD0BFF35F8F62690223E15E94464B0062
:101EC0005B18DB006344002901DB1A886280226909
:101ED000BFF35F8F0025156080F31088002930DB89
:101EE000069A9E60DF601A61079A5A615A88013229
:101EF0005204520C161C002A1FD0B0B20A045E8095
:101F000010432669EFF3108572B63268002AFCD0C0
:101F1000BFF35F8FA2881A80A1802369BFF35F8F10
:101F200000221A6085F31088074923788C46013215
:101F30009A40E36863441A60F8BD0126DDE700209B
:101F4000FAE701204042F7E73C20000070B5C646A2
:101F5000010000B50469EFF3108C72B62068002808
:101F6000FCD0BFF35F8F02200D5E48696C00804695
:101F70006419E4004444002D01DB2088488008698E
:101F8000BFF35F8F002606608CF31088002D30DBD6
:101F9000E36063880598013320615B0406985B0C5D
:101FA000A26060611A1C002B21D090B22B046280C9
:101FB00018430A69EFF3108672B61368002BFCD041
:101FC000BFF35F8F8B8823808D800B69BFF35F8F9A
:101FD00000221A6086F310880B7801329A40CB6891
:101FE00005498C4663441A6040BCB04670BD01226E
:101FF000DBE701204042F7E73C20000010B54389B1
:102000000A14934233DD53009B184269DB00944667
:1020100004696344EFF3108C72B62268002AFCD086
:10202000BFF35F8F5A88090494B2090C8A4208D022
:102030000369BFF35F8F00221A608CF310880020C1
:1020400010BD8022120214435C8001230269837157
:10205000BFF35F8F002111608CF31088054902786F
:102060008C469340C268012062441360E8E7002078
:10207000E6E7C0463C20000040787047F0B5040019
:102080000D0006267642F717C64636196F4100B591
:1020900082B08F4214D811D000F0B2F932003B0068
:1020A000121A8B41002B15DC002B44D02000290094
:1020B00000F0B0F902B080BCB846F0BD8642EBD962
:1020C0000026002700F09CF932003B00121A8B41D9
:1020D000002BE9DD00F094F932003B00121A8B412D
:1020E000002B0ADB00230193144B320000931448A9
:1020F0003B00FFF72BFF0028D8DBB0460026BC468C
:10210000104A114F7B6A9C4504D8B96A8845CDD9DD
:102110009C45CBD11168EFF3108072B60B68002B91
:10212000FCD0BFF35F8F1368BFF35F8F1E6080F337
:10213000108820BFE6E7002AB8D0CBE76919001065
:102140006C120020DCE500200040054070B5040062
:102150000D0000F055F900196941002902DBFFF775
:102160008DFF70BD012001494042F8E7FFFFFF7F6E
:1021700070B5060000F044F9FA2204000D000023B7
:102180003000002192000AF0A7FE001969410029E1
:1021900002DBFFF773FF70BD012001494042F8E701
:1021A000FFFFFF7FF0B5CE46474680B504000D0027
:1021B00083B0EFF30587002F3BD12F4E8146337854
:1021C000F26804339B00916A9B58421A5B1A9A4248
:1021D0000ED320BF294A0020536AAB4203D3926A30
:1021E000013091453CD803B0C0BCB946B046F0BD03
:1021F00000F006F922002B00121A8B41002B26DB7F
:102200001F4B2200009330002B000197FFF79EFE2A
:10221000011E1CDD194BA8465A6A954225D920BFDC
:102220003000FFF7EBFE154A0020536A9845DAD8D4
:10223000D5E7124A0020536A8B42D4D3926A013008
:10224000A242D0D2581A421E9041C0B2CBE70B4AEC
:102250000020536AAB42C6D3926A01209145C2D98D
:10226000E81A421E9041C0B2BDE79B6A9C42D7D992
:102270009542D5D1D3E7C0466C12002000400540FE
:1022800069190010F0B5CE464746110080B583B0FD
:1022900004009C460C9D194300D16DE06146DB179C
:1022A0000193009353401E00019B4B401F00009878
:1022B0000199361A8F4163460A996B600B9BAC609B
:1022C00029612A606B6100F09BF836184F41002F9E
:1022D00000DA59E02269EFF3108972B61368002B17
:1022E000FCD0BFF35F8F62690223E15E94464B002E
:1022F0005B18DB006344002901DB1A8862802269D5
:102300009046BFF35F8F00224046026089F3108839
:1023100000293DDB204A9E60DF601A615A885D61BA
:1023200001325204520C101C002A2BD082B2588069
:10233000080402432669EFF3108772B6306800285C
:10234000FCD0BFF35F8FA0881880A1802369BFF302
:102350005F8F0021196087F3108810482378844626
:10236000013199400120E36863441960EA6003B0D9
:10237000C0BCB946B046F0BD0023012600270122AB
:102380009C4698E70120D1E70126054F7642A1E758
:10239000012200205242E9E7991900103C20000078
:1023A000FFFFFF7F004870470040054010B5024A1C
:1023B0000248FFF7DDF910BDE02101104828002098
:1023C00010B501000148FFF743FA10BD482800206E
:1023D00000B5054B83B00093002203230348FFF7A9
:1023E000E9F903B000BDC0460422011048280020CE
:1023F0000300416A0A00986A596A8A42FAD1704712
:10240000034B596A0A00986A596A9142FAD1704797
:1024100000400540064A536A9942FCD807D1044B54
:1024200002E05A6A914202D19A6A8242F9D3704715
:1024300000400540054B064A1360064A136053608E
:102440009360D36013615361936170478080808093
:1024500000E400E004E400E01F2318401E3B83403A
:10246000002905D0C021044A490053501360704729
:10247000802201498B50FAE700E100E0012282400E
:10248000034B1B6813405A1E9341D8B27047C04695
:1024900000E100E001238340014A13607047C04619
:1024A00000E200E0084B10309B688000C358002B0E
:1024B00007D0064A00209B1A2F229A424041C0B200
:1024C00070470020FCE7C04600ED00E084120020C9
:1024D00070B50D00EFF3108672B60F4A1368002B2B
:1024E000FCD0BFF35F8F0D4B10309B6884001B59ED
:1024F0000B4A934203D09D4201D00AF055F8074B96
:102500009B681D51BFF35F8FBFF35F8F0022024BAB
:102510001A6086F3108870BD240100D000ED00E041
:10252000CD010010F0B557464E46DE464546E0B5B3
:1025300085B0060002911700EFF3108B72B6674A60
:102540001368002BFCD0BFF35F8F0025644B5D57F1
:102550009A46002D00DAA4E06B00624C03935B19ED
:102560009B009846A146C1444B4652469B79103683
:1025700013705D4BB2009B68019299580B1B2F2B77
:1025800034D95A4B994200D0A4E0039B584A9C4648
:10259000584B6544AD006353434602336519E41854
:1025A000554B0121043B1B1B1B055B0D13436B802B
:1025B000524BEF71AB80FF23AB71029BAB604B467C
:1025C0000B431900484B019A9B689950BFF35F8FEA
:1025D000BFF35F8F0022414B1A608BF3108805B068
:1025E000F0BCBB46B246A946A046F0BD01200A0099
:1025F0008243D379BB422FD845464E46130040490B
:102600001B1B5B415943090D3A4B63533A4B02354F
:102610006519043B5B1B1B05354D5B0D2B4373801C
:102620000426B446E0444444131F1B1B4C46A171CE
:1026300002991B05A16049465B0D2B43A380314BDA
:10264000E77101431360BDE75800C01880002018EF
:10265000C679BE422BD902000623D356002BF3DAEB
:10266000101D82462848804604267642B446E1443E
:1026700050464E46361A3005400D824656461C4896
:10268000957106439680039A944665441D4AAD00B1
:10269000641922604246A371029BA280E771A36085
:1026A00090E709F081FF002553465D5754E7101D60
:1026B000824690884005001584464046D4446646CC
:1026C00004302018301AE0260005400D3602304351
:1026D0008046C9E709F068FF57E7C046240100D0EB
:1026E0002CE600208412002000ED00E0CD01001057
:1026F00000E0FFFF00A1FFFFB412002001BDFFFFBB
:10270000AAAA00000148804701BD0000F0B5DE46DE
:1027100057464E464546E0B50C0083B0EFF31089AE
:1027200072B65F4A1368002BFCD0BFF35F8F5D4B1E
:102730009A68030010339F00D5595B4A9046954232
:102740003DD0A5424ED0594EAA1B2F2A37D8584A01
:102750009346126894460122614692468240114097
:102760001F221040524682409246019180225146DB
:1027700058468150BFF35F8FEFF305829346002ADE
:1027800032D101232A009A439068844208D17CE028
:102790004B005B189B00F318986884422ED01A00F7
:1027A000062151560029F3DA84424DD0019B002BBB
:1027B0001FD0C02251463E4B520099501960394BF0
:1027C0009B68DD51BFF35F8FBFF35F8F0022344BF7
:1027D0001A6089F3108803B0F0BCBB46B246A94624
:1027E000A046F0BD1500EAE79342CAD009F0DCFE2E
:1027F000C7E7802351462E4AD150E0E706215956BB
:10280000002922DB4A005018800034188046A06856
:102810009860E079D871062020569871002825DB51
:10282000A488F01A6405241544440019E024000526
:10283000400D24022043988052181E4B9200B61877
:102840001A781970B271B1E71300594600290FD1F7
:10285000FF3191711849918016490A789A71174A87
:102860009B1B5B415A43120D0A709FE71448E2E735
:10287000144A1549D21A083A5002400D0143998072
:10288000124952080A43DA8090E706215156130094
:102890000029B7DA5A46002AEAD14546DCE7C046A5
:1028A000240100D000ED00E0CD01001084120020D2
:1028B00000E100E02CE6002001BDFFFFAAAA000015
:1028C00001BD0000BE12002000F0FFFF00F8FFFF76
:1028D00010B58308040003202040FF24054AC000EF
:1028E0009446844081409B0063441A68A2430A4393
:1028F0001A6010BD00E400E070B501240443EFF35A
:102900000581EFF3108C72B6214A1368002BFCD0BE
:10291000BFF35F8F1F4B05001F4AED1A6D416A43DD
:10292000120D1E4D8900AE6852B27658A6421CD0D8
:102930000621595691421CD012215956914222D05B
:102940001E215956914220D02A21595603249142E2
:1029500010D0134B19781A708171BFF35F8F00226A
:102960000B4B1A608CF3108870BDAB680D4C5C503B
:10297000EFE700246100091989005B18FF219971B4
:1029800009499980E5E70124F4E70224F2E7C0460B
:10299000240100D084120020AAAA000000ED00E06B
:1029A0002CE60020CD01001001BDFFFF1F2110B556
:1029B000091A0248FEF74CFF10BDC04636E600205B
:1029C00000B5074B83B001000093002205230548A2
:1029D000FEF7F0FE002801DB1F23181A03B000BD2C
:1029E0001822011036E6002070B504000E00150014
:1029F000FEF74AFF0100200000F006F8A680E580FF
:102A0000BFF35F8F70BDC046024B9C466144890096
:102A10000160704740000034F8B5134D134E2C0090
:102A2000FF27B5421ED22368002B0FD0FEF72CFFE4
:102A300001002800FFF7E8FFA780BFF35F8F08348D
:102A4000B4420FD223682500002BEFD1FEF71CFF04
:102A500001002800FFF7D8FF2771BFF35F8F08340C
:102A6000B442EFD3F8BDC046A01B0020B01B00202D
:102A700010B50400FEF708FF01002000FFF7C4FFB7
:102A8000FF232371BFF35F8F10BDC04610B5040054
:102A9000FEF7FAFE01002000FFF7B6FFFF23A38038
:102AA000BFF35F8F10BDC04610B504000120FEF7D4
:102AB000F7FE044B9C46604480002060BFF35F8FAC
:102AC00010BDC04640000034034B9C466144890061
:102AD0000160BFF35F8F704740000034F8B5DE46F9
:102AE0004E4657464546E0B58B4605000A99180004
:102AF000160009F065FE0A9B6C001F02324B641938
:102B00009C46A4006444636881469F4200D9676084
:102B10002B1FDBB29846012B30D9C02380229B01AA
:102B2000E31812011A60294BAD0059599A46002941
:102B30001BD1226876017240E0268023164042466F
:102B40005B01E3181E60012A30D9802380229B019B
:102B5000E31812011A6053464A4667605A51F0BCA6
:102B6000BB46B246A946A046F8BD586909F028FE02
:102B7000431C5800C0180338FDD2DAE75B46012B2E
:102B8000CBD1C02303229B01E3181A60023AA36849
:102B90001A42FCD0E0232268760156401E40802372
:102BA0000A4A5B019246E3181E60AD005A4621684E
:102BB000514003220A401A6001225B469A40A368F2
:102BC0001A42FCD0C1E7C0460080004050280020D7
:102BD000F0B546464F46D646C0B51F00344B4400BC
:102BE0009C462418A4006444636888461600FF2BA2
:102BF00002D880235B006360031FDBB29A46012B7F
:102C000030D9C02380229B01E31812011A60294B9E
:102C100085005959994600291BD1226876017240D6
:102C2000E0268023164052465B01E3181E60012A0D
:102C300030D9802380229B01E31812011A6080237F
:102C40005B0063604B465F51E0BCBA46B146A846A4
:102C5000F0BD586909F0B4FD431C5800C018033892
:102C6000FDD2DAE74346012BCBD1C02303229B01DF
:102C7000E3181A60023AA3681A42FCD0E0232268E3
:102C8000760156401E4080230A4A5B019146E318B4
:102C90001E60850042462168514003220A401A60A6
:102CA000012342469340A2681342FCD0C1E7C046CC
:102CB0000080004050280020014B8000C058704721
:102CC00050280020D0231B061B68F0B59A0045460B
:102CD00090464146934ADE465258574693465A1EFE
:102CE000934130224E465B421A4013008E4AE0B5B3
:102CF000944683B0634401938C4B08269A46350072
:102D0000083DEA081300019908339B005C58002C29
:102D100027D05B46002B2ED001230F279946390080
:102D20002140274217D0524640462B001258203BE4
:102D3000EA40DB1713404A4613420CD10722080031
:102D40002A40920090400200EB0879483C339B00F7
:102D50001A502800D84724090135002C01D0B5426B
:102D6000DDD30836282ECAD103B0F0BCBB46B2462C
:102D7000A946A046F0BD0F2318002040234209D0E9
:102D800041466A4B59583300E940283BDB0F0B4260
:102D900000D197E02309F11F002BE2D00F22100091
:102DA00018401A4211D04246604B9A583300CA402C
:102DB000273BDB0F134208D10722CB0811408900C3
:102DC00088405B4A3C339B009850230AB11F002B7C
:102DD000C7D00F22100018401A4211D04246534B60
:102DE0009A583300CA40263BDB0F134208D1072212
:102DF000CB081140890088404D4A3C339B009850D5
:102E0000230B711F002BACD00F22100018401A4268
:102E100045D1230C311F002BA3D00F2210001840E6
:102E20001A4258D1230DF11E002B9AD00F22100008
:102E300018401A4262D1230EB11E002B91D00F22EE
:102E4000100018401A4211D04246384B9A583300AD
:102E5000CA40223BDB0F134208D10722CB081140A6
:102E600089008840324A3C339B009850240F711EE1
:102E7000002C00D175E7534642469A583300CA40A9
:102E8000213BDB0F134200D06BE70722CB08114038
:102E900089008C40264A3C339B009C5061E74246A7
:102EA000224B9A583300CA40253BDB0F1342B0D166
:102EB0000722CB081140890088401D4A3C339B0003
:102EC0009850A6E707231D40AD00A840184B3C32A0
:102ED0009200D0505EE74246144B9A583300CA40E5
:102EE000243BDB0F13429DD10722CB081140890000
:102EF00088400F4A3C339B00985093E742460B4B67
:102F00009A583300CA40233BDB0F134293D1072268
:102F1000CB08114089008840054A3C339B009850FB
:102F200089E7C0463428002000410140C0E4002069
:102F30000040014010B54024084A83009A181268E6
:102F4000C0005440C0222240054CA44663441A608D
:102F5000044B9C466044416010BDC04604C0014023
:102F600004D00140004001400B4B80009C4660446F
:102F700000290ED100230431002A00D1190080223B
:102F800003685201594094460C2360440B4003608F
:102F900070470C210823EFE704C00140800000299E
:102FA00005D0064B9C460223604403607047044BE7
:102FB0009C46022360440360F8E7C04604E00140F9
:102FC00004F00140D0231B061B6830B50500581ED5
:102FD000834110485C428446072030232840234028
:102FE0008000EC08814020000B4D3C3063448000A1
:102FF000A40041511B19002A05D080229201944659
:103000006344196030BDC022920194466344196044
:10301000F8E7C0460041014000400140F8B5454690
:103020009846D0231B06DE461C689B462B4B574612
:103030009A46A3004E469946E0B5534616004A46C6
:103040009B5807000D00002B34D04346002B3FD087
:1030500053464A4641469950D0231B061C68072018
:103060001F4A631E9C419446FA08110030233840E1
:103070008000854064421B4823403C316344890002
:1030800092000D509B18002E0ED080229201944683
:10309000634401210D201D60FFF7DEF9F0BCBB4643
:1030A000B246A946A046F8BDC022920194466344A8
:1030B0001D60F3E74346002BD1D0534641460D2017
:1030C000995000220849FFF72DFA5B461C68C6E7B5
:1030D0000D200549FFF71AFBBAE7C0463428002047
:1030E0000041014000400140C52C0010D023F0B544
:1030F000C64604001B0698461B680C4F9B00F858F8
:103100000D00160000B5044209D104433200290025
:10311000FC500D20FFF706FA80BCB846F0BD09F060
:1031200043FA43461B689B00F858EEE7C0E40020D2
:1031300010B504000D20FFF7E9FAD0231B061B6829
:1031400002499B005A58A2435A5010BDC0E40020C7
:103150000123D02283404021120693629361094AE1
:1031600083009A181268C0005140C0220A400649E4
:103170008C4663441A60054B9C46052360444360BB
:103180007047C04604C0014004D0014000400140E7
:10319000F8B5040020481D0017000E0009F010FBD0
:1031A0000100380009F00CFB069B29041B0319439E
:1031B0002368002B1EDB194B194DE21853425A416C
:1031C00080235B019C461203164B62441A60164B27
:1031D0001A6017002B689F43FBD1144B2660E2183E
:1031E0002123A06013602368002BFCDA0823E16030
:1031F0001360F8BD3F2322681340B342DBD1A368BC
:103200001B051B0D8342D6D1EE22E368D202134088
:103210008B42D0D1EDE7C046001BB7000040FDBF98
:1032200008C0004000E0004000F000400430000012
:1032300010B5140080221B4BD2051A6000281AD04A
:103240000123194A1843194BDA61194A42401A629C
:10325000596298628022134BD2051A601549164AAA
:103260001160E022D2041A60002C07D18022134B97
:1032700012061A6010BD0D4BD861EBE763011B1BF2
:103280009A008023121912015B049A4200D30C4A5F
:103290000C4B1A60054B5A608022084BD2051A600D
:1032A000E8E7C04600B00540D3C007B00080054045
:1032B0002D3FF84FFCFF01000820014000A0054011
:1032C000FFFFFF00503B00208023024A9B000B437E
:1032D000D362704700800540AA23064A1B01136091
:1032E0002F230549D360054B19605368002BFCDA86
:1032F0007047C0460040024000B0FA000060024043
:1033000010B501F08FF900F0E9FA00F0ADFC00F023
:1033100053FD02F0FDFE01F015FA00F057F902F03E
:1033200067FE10BD40BA80B27047C04600BA704711
:10333000F8B54746CE4680B50701040038180001AD
:1033400010308146404D414E2B688846B144002BD9
:1033500002D02A7AA24258D0EB68002B02D02A7DF4
:10336000A2424BD0AB69002B03D02022AA5CA24220
:103370003DD06B6A002B03D02C22AA5CA2422FD036
:103380003B191B01F318DB7B002C04D0B27A022A14
:1033900041D0012C06D08D225200B25C022A43D0CB
:1033A000022C05D02A4AB25C022A43D0032C03D057
:1033B000284AB25C022A42D0032B0DD8264D9B002E
:1033C000585903F06DF800223C1924013619F37B9B
:1033D0009B005A510423F373C0BCB946B046F8BDF4
:1033E00041464846AA6A984700236B62C8E74146AF
:1033F0004846EA6998470023AB61BAE74146484628
:103400002A6998470023EB60ACE748466A6898470A
:1034100000232B60A0E7F27B9A42BAD104233C1927
:1034200024013619F373D7E72022FF32B25C9A42A7
:10343000B6D1F3E7094AB25C9A42B7D1EEE7084A3F
:10344000B25C9A42B8D1E9E798320020D03200202D
:103450002A0200003A030000883200202F020000F8
:103460003F030000F0B5DE464E46574645468346CC
:10347000E0B5030187B04F4A01935B441B01D618A6
:10348000F27A012A00D992E04B4992008C58002C24
:1034900000D17FE010331D00464B9C466544280058
:1034A0000EF060FBA022123081B29200362000F0B4
:1034B000CBFD8146002866D003AC0C220021200001
:1034C00009F0C6FE3089FFF72DFF01232080A3708D
:1034D0000C22FF3321004846A38000F0D9FF374B70
:1034E0000C269A464F46013D6B1C98466B7800248B
:1034F00045462E2B06D156E06B7801340135E4B2F7
:103500002E2B01D0002BF7D14346EB1A9BB29946E4
:103510002300F318534542DC22003100380001F04B
:1035200053F8731C4A469BB234194146380000F0E8
:10353000EBFFA3B22A785E1CB6B2002AD4D11C00DD
:103540003100380001F040F81D4B02340422029390
:1035500002A9A3B2380000F0D7FF164A019B944697
:1035600015495B441B0163448C46DA7ADB7B1549C1
:103570009B009200585862443523390002F01AFF2C
:10358000380000F067FE07B0F0BCBB46B246A94663
:10359000A046F0BD0021FFF7CBFEB472F3E7380080
:1035A00000F058FEEFE7002200239146B1E70648FD
:1035B000FDF7F0FCD0320020C8320020FEFF0000F2
:1035C0000001000188320020342201107047C046FB
:1035D00082B0012801D902B070478000002903D0D1
:1035E0000A68044BC250F6E7034A024B1268019284
:1035F000C250F0E7C8320020AC320110F0B54646A8
:103600004F46D646464BC0B5464E8D273400002562
:1036100098467F00A37A022B35D02CD8002B1FD0E0
:10362000414B9946414B9A46FDF784FFB37A80B2ED
:10363000022B40D0F35D022B43D04B46F35C022BB0
:1036400048D05346F35C022B4DD002230122A372D3
:1036500000232081E372280022736373FFF702FFC7
:1036600001351134EDB2FF34042DD3D1E0BCBA469C
:10367000B146A846F0BD032B4ED12368002B13D1D1
:103680000023A372ECE7237B013BDBB22373002B07
:10369000E6D1637B0133DBB26373042B29D0237340
:1036A0002800FFF7DFFEDBE7013B2360002BD7D1CB
:1036B0000023A372D4E733898342B5D0F35D022B94
:1036C000BBD11733FF33F35A8342ADD04B46F35C83
:1036D000022BB6D18A239B00F35A8342A4D05346CF
:1036E000F35C022BB1D1CE239B00F35A8342ACD1C1
:1036F0009AE7E37A002B08D142465268002A04D0A8
:1037000001226373E2722273CAE700212800FFF7E7
:103710000FFE0023A372A3E70548FDF73BFCC0465C
:10372000C8320020D03200202A0200003A030000F4
:1037300068220110F0B583B06B469C1D00232380E6
:1037400001331E000640184205D0002903DD03782E
:10375000013963700130032213000340104205D089
:103760000023012938DD03880239023007294BDDA7
:10377000083907220F009743020005000832BF18DE
:103780002A689A189A429B415B42D2186B680835A6
:10379000D3189342924152429B18AF42F0D1CA08CB
:1037A000551CD200ED00891A1A044019120C1B0C8A
:1037B0009B18012910DD02889B188A1E012A05DD4D
:1037C00045885B19052901DD81885B1851084D1C6E
:1037D0006D0049004019511A012901D10278227067
:1037E0002288D218130C1204120C9B18180C1B04FC
:1037F0001B0CC018002E04D0030600041B0C000E86
:10380000184380B203B0F0BD1A00D0E7F0B54F46C0
:10381000D6464646C0B591461A68089B8A4619683E
:1038200004000B041B0C090C5B181104090C59183B
:10383000130C5B18180C1B041B0CC318180C1B046E
:103840001F0CC719002C21D0FF2300260125984604
:1038500061896068FFF76EFFC019030C0004070C54
:10386000DF1963891D4207D042463B06380A1B0C0C
:10387000104003431F006E402468002CE8D1002E46
:1038800004D03B063F041B0C3F0E1F43534698B227
:10389000FFF748FD04004846FFF744FD2018C01913
:1038A000030C0004000C1818030C0004000C18187A
:1038B000C04380B2E0BCBA46B146A846F0BDC0469F
:1038C00010B582B0049C0094FFF7A0FF02B010BDB9
:1038D00010B5FFF72FFFC04380B210BD03220A4B83
:1038E000002103339343094A09481360FA22120165
:1038F00019719918016001201A60087105499950E1
:10390000054A13607047C0460CD5002004D500203E
:1039100008D50020A00FA00F4C3B0020F0B5D646E4
:103920004F464646C0B500285DD0830700D069E009
:103930000300394A083B12689A4260D837490C3074
:10394000096881425BD31879002861D0FA201D886C
:10395000000185420CD85C88A246844208D8981A97
:1039600080B280461619A04205D03088404502D06A
:103970002B48FDF70FFB5019814202D04488444583
:10398000F6D100241C71274CA44624689C4202D91D
:10399000644623601C00994237D9834213D00779CB
:1039A000002F10D181420ED0A04224D005881D8066
:1039B0000188FA200001814205D040465118488014
:1039C00059888A465618B3420DD0317900290AD158
:1039D000A3420DD0FA2135801B8809018B4202D009
:1039E000D31852465A80E0BCBA46B146A846F0BD4C
:1039F00061460E60EEE761461C000B60D6E70A48A0
:103A0000FDF7C8FA0948FDF7C5FA0948FDF7C2FAFB
:103A10000848FDF7BFFAC04604D5002008D50020AD
:103A2000F02201104C3B0020AC2201108822011032
:103A300024230110C8220110F0B5C6463B4BCA1C16
:103A400000B513400B2B3FD9FA22120193423ED806
:103A500099423CD8364A146884425ED8354A126886
:103A600082425AD90500083D291B8AB290462E8809
:103A700041463200083A521A92B29A4250D320D0AC
:103A8000A7193979002924D1FA22120196424AD085
:103A90003A88294E9446424608329B1832689BB2B7
:103AA000BA4237D0E2186146118041460026518063
:103AB000FA2116712B80128809018A4201D0A218BE
:103AC000538080BCB846F0BD0C239942C2D9002077
:103AD000F7E71F001437BFB2BA42F2D342460832AA
:103AE0009B18FA229BB2120196421CD0124FE21888
:103AF0003968914200D93A60414600275180FA2145
:103B0000177116802B80128809018A42D9D0A41817
:103B10006380D6E7E2183260C5E70848FDF73AFA55
:103B20000748FDF737FA0748FDF734FAFCFF0000B5
:103B300004D5002008D500204C3B00204023011074
:103B40005823011078230110F0B5D6464F4646465B
:103B5000C0B500282FD03D4CC31C1C400B2C30D9C5
:103B6000FA231B019C4226D8A04224D8384BFA22C3
:103B70009C461B6812019A46364B121B1E68534620
:103B80009B1B98B21B0490461B0C9A4213D9082722
:103B90007F4208E01588FB1A5B19A34213D22B0061
:103BA0002800434507D2F21811790029F2D0108875
:103BB00003004345F7D30020E0BCBA46B146A8460F
:103BC000F0BD0C24D0E71427B846A0444746BFB246
:103BD000BB421CD2012308341371A4B21E4B1868D7
:103BE000130092450ED0A418A0422CD31000083028
:103BF0009307E1D01948FDF7CDF91B88F31819791F
:103C000000291AD09842F8D163461860EBE7FA27EA
:103C10000834A4B203193F019BB2B946BB420FD08E
:103C2000F718397101213D8078801380117139882E
:103C30004945D3D071184B80D0E761460B60D2E77D
:103C40000748FDF7A7F90748FDF7A4F9FCFF0000B6
:103C50004C3B002004D5002008D50020BC230110D7
:103C6000782301108C23011024230022F0B547464D
:103C7000CE469046994603320425944680B5124FAD
:103C8000124B134CB94441463A68216061460333F4
:103C90008B43002D0BD016880021002200E003008A
:103CA00001321960981919002360AA42F7DB043722
:103CB000B94504D03A68946853685588E3E7C0BCB6
:103CC000B946B046F0BDC046B02401108CCC0020EF
:103CD000B4D4002010B5082810D80B4B8000C4586D
:103CE000FDF752F8A3681C68002C03D022681A6004
:103CF000A30705D1FDF74AF8200010BD0024FBE71B
:103D00000248FDF747F9C046B02401100024011015
:103D100070B50C0008280ED800290CD0084B800084
:103D2000C5588B0708D1FDF72FF8AB681A682260D9
:103D30001C60FDF72BF870BD0248FDF72BF9C0465B
:103D4000B02401102424011070B505000C001600E9
:103D500082B000292AD043680A689A4201D102B091
:103D600070BD3360300001A9019201F0B1F930005B
:103D700001A902F0C1FB01A9300000F033FC392396
:103D800022686A60E95C343B0B40052B05D0EB6987
:103D9000002BE4D028009847E1E7002AF7D00B0772
:103DA000F5D52800291D04F0D9F8F0E70148FDF702
:103DB000F1F8C046D42401107047C046F0B50400A5
:103DC0000D0016001F0083B000294ED0002E4AD0EF
:103DD000002F46D02B680022002B0CD03368A1683E
:103DE0008B4200D0A3603B68E1688B4230D1002A4F
:103DF00031D003B0F0BD616801220029EED06846E1
:103E0000009101A9019301F063F9684601A902F04C
:103E100073FB01A9684600F0E5FB39232A6862605C
:103E2000E15C343B0B40052B07D1002A05D00B0782
:103E300003D52000211D04F091F8E369002B01D087
:103E4000200098473368A16801228B42CBD0C9E794
:103E5000E360002ACDD16A4629002000FFF774FFF5
:103E6000C7E7034FB6E7024EB2E7014DAEE7C046E3
:103E7000AC32011070B5041E16D04368002B17D168
:103E800039220121A35C194224D11D4B1A68A24298
:103E90002ED01C4A1368A34204D126E01A68A2421D
:103EA00003D01300002BF9D170BD22681A60FBE724
:103EB000051D0021280001F00BF90021280002F067
:103EC0001BFB0021280000F08DFB39220121A35C9F
:103ED0001942DAD018008843A0541B070BD4E369B9
:103EE000002BD2D020009847CFE723681360DBE790
:103EF00000221A60CDE7200003F06CFFEFE7C04618
:103F0000D8D40020DCD4002070B5041E03D039259D
:103F1000435D5A0700D570BD04221343435503F097
:103F20006DFA0523625D1340052B05D0236A002B33
:103F3000F1D020009847EEE76368002BF6D0130716
:103F4000F4D52000211D04F009F8EFE710B5002892
:103F50000AD039220421835C194205D08B43835453
:103F6000036A002B00D0984710BDC046021E0ED039
:103F7000084B1868002809D03C2102E0006800289E
:103F800004D0435C0133DBB29342F7D17047002089
:103F9000FCE7C046DCD40020F8B505000026002868
:103FA00026D00F270BE0012B24D0002B2AD128008C
:103FB000FFF7B4FC0136F6B2002C19D02500FCF74F
:103FC000E3FEAC7B002C1AD0013CE4B2AC73FCF7EE
:103FD000DDFE002C0CD12B7B2C683B40022BE2D168
:103FE000290008200136FFF793FEF6B2002CE5D138
:103FF0003000F8BD29000720FFF78AFEDAE7034802
:10400000FCF7C8FF0248FCF7C5FFC046E4240110D6
:10401000FC24011010B5FCF7B7FE0022084B1A7003
:10402000FCF7B4FE074B1868002803D107E0C0680E
:10403000002804D0436F002BF9D001F097F810BD91
:1040400031E60020E8E50020F0B5C1234F464646A2
:10405000D6468046C0B50D00170084B25B009A4278
:104060003FD008D81400433BFF3B9C43012C6AD04F
:104070003C48FCF78FFFA0239B009A42F8D1E31C39
:104080000324CA1CA343A2439B189BB21800103000
:1040900080B293421ED382421CD8FFF755FD061E04
:1040A00019D0002303604346C71813372E4B290449
:1040B000A7430D4347608560C3600CE0FCF764FED6
:1040C00001222A4B1A70FCF761FE002E02D030004C
:1040D000FFF762FF00263000E0BCBA46B146A846B2
:1040E000F0BD00239846224B00269A460023032762
:1040F000994607E043466D1AADB21860002DEAD02C
:10410000804600240820FFF7E5FD0028D6D052465F
:10411000E31CBB43D31A1A1C9BB2AB4200D92A1C26
:104120004B46041903601334124BBC4391B24460F4
:1041300005814281C360002EDCD16D1AADB206004C
:10414000002DDDD1C7E70720FFF7C4FD061EC2D052
:10415000002329040D4303604360856007734373A4
:10416000C481B8E7102501108000010031E600206D
:10417000EC0500008200010070B5041E34D00289F5
:104180008A421CD90D008A1A07E023896D1A9B18F0
:1041900023812468ADB2002C20D06189A942F4D3D8
:1041A000237B1B0701D1A9420AD129042068294396
:1041B000A160002801D0FFF7EFFE0023236070BD4F
:1041C00063682000191B691889B2FFF735FC0028C5
:1041D00007D08442E9D00648FCF7DCFE0548FCF72E
:1041E000D9FE0548FCF7D6FE0448FCF7D3FEC046CE
:1041F00078250110442501105C2501102C250110A3
:10420000030070B5002820D08022520291421AD2B9
:10421000002916D002898CB2A21892B2944212D808
:10422000057B01207F2D0DD95D68691A1D001035B1
:10423000A94207D359605989002064185C811A810A
:1042400000E0002070BD0120FCE70148FCF7A2FE61
:104250009425011010B5002802D0FFF79DFE10BD77
:104260000148FCF797FEC04694250110030000208A
:10427000002B04D01B68013080B2002BFAD17047AC
:1042800010B50C0000281FD000291CD00368002B9B
:1042900007D0028921895218028118001B68002B5F
:1042A000F7D102894389934214D1228904609B1873
:1042B0000381FCF769FDA37B0133A373FCF766FD63
:1042C000A37B002B03D010BD0029FCD0F1E70348ED
:1042D000FCF760FE0248FCF75DFEC046A025011019
:1042E000B4250110F0B54F46D64646468146C0B5C6
:1042F000884692461F00002900D184E00B89934232
:1043000000D280E0002800D17DE053460289FB18EE
:104310009A4200DA77E0002644890CE043465A8945
:104320001B899A423DD04B465C891B899C424DD0EB
:104330005346002B57D043465B89E41B9B1B9C4292
:1043400000D91C005546A24500D925004B465B68A4
:104350002A00D81943465B687F19991908F07EFF37
:10436000534676195D1BABB29A464B465C89BC42FC
:104370004CD343465B89B3424BD305D143461B68BC
:1043800000269846002B17D0BC42C7D14B461B686D
:104390009946002B1FD043465A891B8900279A4211
:1043A000C1D143461B68002BBDD006204042E0BC73
:1043B000BA46B146A846F0BD5346002B23D1BC42B5
:1043C00019D04B461B899C420DD100264B461B68D9
:1043D000002BADD0E9E75346002B14D143461A8990
:1043E0005B899A4201D00020E1E743461B68002B1D
:1043F000DBD10020DBE74B461B689946002BF2D04F
:1044000000275C89DDE710204042D0E70248FCF736
:10441000C1FD0248FCF7BEFDE4250110FC2501109A
:10442000F0B5C6460500884616001900002700B5FD
:10443000002828D04346002B25D0002A05D122E0B1
:104440002D68091B89B2002D1DD06C89002901D06F
:10445000A142F5D2641AA4B2321CA64200D9221C91
:104460004346D8196B6894B29C46361B22006144BF
:10447000E719B6B208F0F2FEBFB22D68002E02D0E6
:104480000021002DE1D1380080BCB846F0BDC04607
:10449000F8B5CE46474605008846914680B50028C7
:1044A00024D0002922D0038993421CD31600002770
:1044B000002A02D112E0002D1BD06C89B44200D931
:1044C000340043466868D919220008F0C7FE361B3D
:1044D0002D683F19002EEED1B9450DD10020C0BC8A
:1044E000B946B046F8BD01204042F8E710204042EE
:1044F000F5E70348FCF74EFD0248FCF74BFDC046CC
:104500001826011030260110F0B5D6464F46464613
:1045100004008A46C0B5002805D13AE024685B1B38
:104520009BB2002C35D065899D42F7D921899F180F
:10453000B9422EDBE91A8A4232DD8AB290466268BD
:104540005146D0187D1B424608F088FEABB2994612
:10455000002B1CD02568002D29D02B894B4518D362
:104560004F46002601E0002D24D06C89BC4200D9C2
:104570003C004346F11868682200514408F06EFE82
:104580003F1B2D683619002FEDD1B14515D1002004
:1045900001E001204042E0BCBA46B146A846F0BD69
:1045A00060685146C01808F059FE0020F3E710205B
:1045B0004042F0E70248FCF7EDFC0248FCF7EAFC59
:1045C000182601103026011005E043898B4205D8DA
:1045D000C91A006889B20028F7D1704743685A5455
:1045E000FBE7C04610B5002811D00268002A0ED0A3
:1045F00000290CD00B68002B09D0094B1B68002B3D
:1046000005D01C68944203D0DB68002BF9D110BDA3
:104610000A681A60DB68002BF9D00268F1E7C0462F
:10462000C8E400207047C04610B5041E23D0037DA7
:10463000042B05D0072B0FD00020032B00D010BD7A
:10464000200000F0D7FF00280AD1052323752000A1
:1046500001F052F90020F2E700F0CCFF002807D06B
:10466000431CECD10822638B002013436383E6E7ED
:1046700009232375EBE70148FCF78CFC4826011061
:1046800070B50600806F002803D0FFF7E3FD00231C
:10469000B367746F002C18D06068256800280CD0B0
:1046A000FFF7D8FD21000420FFF732FB002D0AD0D0
:1046B0002C00606825680028F2D121000420FFF753
:1046C00027FB002DF4D1002373670123F46E5B42B6
:1046D0003386002C16D06068256800280CD0FFF7C0
:1046E000B9FD21000420FFF713FB002D0AD02C0098
:1046F000606825680028F2D121000420FFF708FB3C
:10470000002DF4D1346F002C16D060682568002885
:104710000CD0FFF79FFD21000420FFF7F9FA002DD0
:104720000AD02C00606825680028F2D121000420FE
:10473000FFF7EEFA002DF4D100236822F366336709
:10474000B35270BD10B5FCF7F5FE044B80049C46D7
:10475000800C034B6044188010BDC04600C0FFFFB2
:10476000CC120020F8B500281DD0037D012B34D0D9
:10477000028D1D4B511889B299421BD91900466A06
:10478000458E1A4FC46A0185F3182A1CBD420BD806
:1047900092B212199A1A11D5A41B1BD4802252026C
:1047A00094421DD24485F8BD3A1C92B212199A1A4D
:1047B000F2D403E08A42E1D80B00E0E70C4A4185DD
:1047C0001B1B9342EFD90222438B1343438301F017
:1047D00093F8E8E700234385E5E70648FCF7DAFBB2
:1047E0000548FCF7D7FBC046A02D0000D0160000FE
:1047F000670B0000A82601108C260110F0B5DE46DC
:10480000454657464E46E0B5BF4DC04A2B6887B077
:1048100001332B60BD4B1B7801331370BC4B9B469F
:104820005B461C68002C00D1CCE000230593237D5F
:10483000002B00D112E2012B00D115E20A2B00D18E
:104840000FE2B24AA17F1278914200D158E1A277DB
:104850004222A25C022B00D1FDE00B2A00D9F7E036
:10486000A122A65C002E00D15AE1226F002A00D0BE
:1048700012E2E26E002A00D10BE2A222A25C0B2A15
:1048800000D9E5E0A020A34A9619013E3178225CC8
:104890008A4200D28DE16023E15A002900D0B9E0BC
:1048A000200001F0E1FA002800D0BFE0A0230022A0
:1048B000E254A132A35C062B00D9B7E00127002601
:1048C0000133A354237D062B00D1B5E00821080055
:1048D000627A10408046114227D0042B00D05EE15E
:1048E0002B68226AFA219B1A99469423E3584900BF
:1048F0009A469823E35898469C23E05843465843E9
:10490000504407F05DFF814500D93EE1A3274346AF
:10491000E05DFA21434318004900504407F050FF7E
:1049200000239846814500D94AE1676F002F0AD0DD
:104930002B68226A9A1A4023E15E4B005B185B00E9
:104940009A4200D305E1237D032B00D18AE0092B95
:1049500000D0AEE02B68226A9B1AF02B00D887E0CB
:104960009023E6582000FFF78BFE059B002B00D11B
:10497000ADE05B461B68A34200D17EE1059BE26887
:10498000DA604346002B00D0ADE023699946E36826
:104990009846237D012B00D16CE121000220FFF716
:1049A000B7F900235C4C2370002E07D00D21484638
:1049B0004942B0472378002B00D031E74446002C11
:1049C00000D034E7554F00243968002904D11AE09B
:1049D0000C00C968002916D00B7D0A2B00D046E1D7
:1049E0002B680A6A9B1AF02BF2D9002C00D1DAE06E
:1049F0003B688B4200D143E1CE68E6600220FFF7BE
:104A000087F9311EE8D107B0F0BCBB46B246A946D3
:104A1000A046F0BD200000F00BFD002800D045E7C7
:104A2000200000F069FF002800D03FE7237D012728
:104A30000026062B00D049E7638BDB0605D52B68E3
:104A4000226A9B1A282B00D93E00002398466CE767
:104A50000227012637E7052A00D801E700230126AF
:104A6000984662E72B68226A9B1A282B00D977E7C1
:104A7000002E00D074E7237F627F0133DBB2E6684B
:104A800023779A4212D80023234A237713708C335A
:104A9000E358002B00D17CE02100206998471E4B91
:104AA0001B78002B00D0BBE6002872D005943400A0
:104AB00085E7002EDFD09022A658012B00D854E7BE
:104AC0000A2B00D04EE7059B002B00D051E75B4638
:104AD0001B68A34200D0D9E05B46E2681A604346F7
:104AE000002B00D151E7238B626A216D0293E38A88
:104AF00020000193231D0093230000F05FFE44E794
:104B00000594E4685BE7C046F8E5002035E6002040
:104B1000E8E500208C29011033E60020FCE50020A8
:104B20003022A15E5E48228E824202D8013211B24A
:104B300021864022A25E01278A4200DDC3E62000D2
:104B400000F0EEFD002848D0236F002B42D0237DDB
:104B5000B9E67868A1463C6800280CD0FFF77AFBDC
:104B600039000420FFF7D4F8002C0AD02700786819
:104B70003C680028F2D139000420FFF7C9F8002C66
:104B8000F4D14C4600236367DDE601233E009846DE
:104B9000CBE6200000F0B0FE059434000FE7072BB1
:104BA00000D19DE651E73B688B426CD1CE683E60F8
:104BB00024E70132D2B222548A4200D237E76AE6B1
:104BC000200001F0E1F8002800D0AEE6E35D0133FB
:104BD000E355AAE6E36E002BB9D0237D022B13D058
:104BE0003C22A35E3E21625EDB109B184222A15C48
:104BF0000A1C0C2929D82B49D2B28A5C9340284A36
:104C0000934220DC4022A3520023482123866033B4
:104C1000E25A605A131C824200D9031C4A209BB2FC
:104C20005B082352618E4A0092B2934200D2225214
:104C300048230022E1522233E252200001F092F890
:104C40000127237D3FE6184BDCE70C221549D2B241
:104C50008A5C9340124A9342D4DDF4E71348FCF790
:104C600099F91348FCF796F91248FCF793F91248A2
:104C7000FCF790F91148FCF78DF91148FCF78AF917
:104C80001048FCF787F91048FCF784F90F48FCF747
:104C900081F90F48FCF77EF90E48FCF77BF9C04616
:104CA000FE7F00007C290110FF7F0000D02601104C
:104CB00028270110FC260110182801105426011085
:104CC000C02701104828011070280110EC2701109E
:104CD000882701105427011010B5041E08D0406821
:104CE000002801D0FFF7B6FA21000420FFF710F8E2
:104CF00010BDC04610B50C1E47D0002848D0036830
:104D00008B4204D12FE0DA68A24224D01300002B9A
:104D1000F9D10023E360237D002B0FD1638BDA07E9
:104D200029D4E36E002B36D1236F002B36D1636F6D
:104D3000002B36D100232375E38210BD0A2BF0D05F
:104D4000012BF7D02000FFF79BFC237D0A2BE8D036
:104D5000012BEFD0E2E7E268DA600023E360237D15
:104D6000002BEBD1DAE7CB6803600023E360237DFF
:104D7000002BE3D1D2E7022213436383200000F02B
:104D8000BBFD237D012BD5D0CBE70748FCF702F90B
:104D90000648FCF7FFF80648FCF7FCF80548FCF766
:104DA000F9F80548FCF7F6F898280110B428011026
:104DB000D4280110EC28011008290110F0B54E4646
:104DC0004546DE465746E0B505000E0087B0002890
:104DD00067D0037D012B00D1B3E00A2B00D1A1E005
:104DE000026D9246426A0592902282589346026969
:104DF0009146002B63D1C38A00269846002B67D0CA
:104E0000534A1368834257D1C368136000232C6F41
:104E100098460026EB60002C5DD1EC6E002C16D07D
:104E20006068276800280CD0FFF714FA21000420DE
:104E3000FEF76EFF002F0AD03C006068276800284C
:104E4000F2D121000420FEF763FF002FF4D16C6F34
:104E5000002C16D06068276800280CD0FFF7FAF9FC
:104E600021000420FEF754FF002F0AD03C006068A8
:104E700027680028F2D121000420FEF749FF002F07
:104E8000F4D1002E41D12B7D012B5DD029000220D1
:104E9000FEF73EFF5B46002B03D00D2148464942FA
:104EA000D84707B0F0BCBB46B246A946A046F0BD05
:104EB000DA68AA4242D01300002BF9D1A6E7C38AD0
:104EC000010024489846FFF715FF0122224B1A7073
:104ED0002C6F002CA1D06068276800280CD0FFF749
:104EE000B9F921000420FEF713FF002F95D03C00F4
:104EF000606827680028F2D121000420FEF708FF2F
:104F0000002F00D189E73C00F2E72B8B514602933A
:104F1000434601932B1D009328002B00059A00F0B7
:104F20004DFCB0E701000D48FFF7E4FE2B7D012B9F
:104F30000AD029000220FEF7EBFEB2E7EA68DA6049
:104F400064E70748FCF726F80648FCF723F8C04654
:104F5000ECE50020E8E5002033E60020FCE5002039
:104F60002029011054260110F8B5041E32D0002368
:104F7000856F6F7B83678433C658002E0CD0010089
:104F800000232A000069B04700280BD00D301ED046
:104F90000520A5674042F8BD2989FFF7E3FB2800FB
:104FA000FFF758F9BB0610D5238D0C4A934201D068
:104FB000013323858423E558002D06D000230022E9
:104FC00021002069A8470D3001D00020E3E70D2023
:104FD0004042E0E710204042DDE7C046A02D00003F
:104FE000F0B54F464646D646C0B5204D204F2B78EB
:104FF00001332B701F4B9946012398464B461C6882
:10500000002C1BD008262B78A27F9A421BD0424648
:10501000A377638B1A421ED11E4216D1E3689A46CB
:10502000A36F002B07D0002320003B70FFF79CFFED
:105030003B78002BE2D15446002CE4D1E0BCBA46C8
:10504000B146A846F0BDE468F6E7B34320006383A9
:10505000FFF7EAFAE2E7022213436383200000F03D
:105060004BFC0322638B93436383D5E735E6002033
:1050700033E60020E8E5002010B5FFF7B1FF054A50
:1050800013780133DBB21370DB0700D410BDFFF7D8
:10509000B5FBFBE734E6002010B5002A12D000294A
:1050A0000AD00B8E002B07D0282B06D9283B1A1CC0
:1050B0009BB2834203D890B210BD0020FCE7021CD3
:1050C00090B2F9E70148FBF765FFC046542901108B
:1050D00070B504000D00002802D00368002B00D139
:1050E00070BD1F4A1068002805D00268934226D080
:1050F000C0680028F9D11B4B1868002806D0236827
:1051000002689A4224D0C0680028F9D1002DE7D067
:105110002B68002BE4D0144B1A68002AE0D02368D7
:105120001168994205D0D268002AD9D011689942F5
:10513000F9D12B681360D268002AF0D1D0E7C66895
:105140000121FFF73BFE002ED5D030002368CCE7CD
:10515000C6680121FFF732FE002ED7D03000CEE71F
:10516000E8E50020ECE50020F4E5002070B5446F90
:105170000600002C18D06068256800280CD0FFF7C6
:1051800069F821000420FEF7C3FD002D0AD02C0091
:10519000606825680028F2D121000420FEF7B8FDE0
:1051A000002DF4D10023736770BDC046F0B54F46A3
:1051B0004646D646C0B5994608AB80460E00924694
:1051C0001F7800285FD000295AD00425BB00042096
:1051D0001D40FEF77FFD041E4ED000238772036042
:1051E00046603389AAB2AB4250D39B1A0381142183
:1051F0003000FFF705F8061E34D163685F68434648
:10520000E760D88AFEF78EF843463870000A787057
:10521000188BE768FEF786F8B870000AF870484601
:10522000E768FEF783F8030A7B71030CBB71E36840
:1052300038719846A023DB019C465346000EF87156
:10524000A80260441843FEF76DF843461873000A3D
:105250005873E3689E74DE742000E0BCBA46B14621
:10526000A846F0BD8C220B4920008B5A0024013344
:105270008B52FFF731FDEFE73000FEF7EBFFEBE776
:105280000548FBF787FE0548FBF784FE0448FBF75B
:1052900081FEC046543B0020B4290110942901101E
:1052A000D8290110F0B54746CE4680B505000C0060
:1052B00090461E0085B000294DD0002838D0007AD5
:1052C00000282BD1180003F02BF8071E2AD06368A2
:1052D000062199462000434622890096FEF7F0FAFF
:1052E0004B461874000A5874EB7AAD7A78211B4843
:1052F000425A013242520622009501924146320042
:105300002000029703F04AF805002000FEF7A2FFF4
:10531000280005B0C0BCB946B046F0BDFEF726FE79
:10532000071ED4D104252000FEF794FF6D42EFE75D
:10533000180002F0F5FF071EF4D0434606212000B6
:10534000228900966568FEF7BBFA2874000A687423
:10535000FF230025CAE70248FBF71CFE543B002050
:10536000F0290110F8B54E464546DE465746E0B5F1
:105370000500160000284ED0A022436A143198463A
:10538000C38A89B29A46038B92009946438D2220A4
:105390009B46FEF759FE071E36D04389132B3DD995
:1053A00044685046FDF7BEFF2070000A6070484612
:1053B000FDF7B8FF330AA0702671000A6371330C41
:1053C000360EE070A3714046E671FDF7AFFF030AA9
:1053D00020726372030C000EA372E0721148FDF795
:1053E000A1FF2073000A60735846FDF79BFF00235E
:1053F0006A6AA0739446000AE07323746374A3740A
:10540000E3746B8D6344EB623800F0BCBB46B2467C
:10541000A946A046F8BD0448FBF7BCFD0348FBF7CE
:10542000B9FDC046105000001C2A0110442A01108A
:10543000F0B54546DE4657464E46E0B50C00050041
:1054400083B0002800D1C3E0C66E002E00D1BCE0BE
:10545000002900D1BFE033899A468B4200D8A8E0EA
:10546000438E8B4200D2B9E0B37AA02299009946CC
:1054700004230B409B4653461F1B5B46BFB2F918E3
:10548000362089B29200FEF7DFFD804600281ED04C
:10549000736832891B8941689B1AE3183A00706867
:1054A0009BB25944FEF7BCFFB84218D084224D4944
:1054B00040468B5A01338B52FEF7CCFE012040420E
:1054C00003B0F0BCBB46B246A946A046F0BD84225C
:1054D0000120444940428B5A01338B52F0E7F36874
:1054E000587B1A7B00021043FDF71CFF08230200C3
:1054F0001A409346C7B218425DD13F2001220740AF
:1055000001233B4201D093469F43F1684B790879D0
:105510008A791B020343C879120413430006184317
:10552000FDF704FF4A4641462318009228005A46D8
:10553000FFF73CFE80460028C9D07068FEF796FE53
:10554000662399464A46EB5A1B1AAB525346E41A55
:105550007368A4B219891800611889B2FEF70CFEAD
:105560003189F368641834811C7B5B7BB8B21B0201
:105570001C43FDF7D7FE2043F26883B21B0A107369
:1055800053737068FEF772FE4B46EB5AC0184B46D9
:10559000E85243465868FEF769FE4B46EB5A3268BC
:1055A000C0184B46E85243461A6033601B68002B14
:1055B00007D0002084E73720082309229B460740B4
:1055C0009EE768220020AB527AE70120404277E74D
:1055D0000548FBF7DFFC0548FBF7DCFC0448FBF75C
:1055E000D9FCC046543B0020742A0110982A0110AF
:1055F000BC2A011070B5040082B0002800D17CE004
:10560000C36E002B0CD01D001B68002BFBD1EB6878
:10561000587B1A7B00021043FDF784FE430741D0FC
:10562000A022002136209200FEF70EFD011E58D068
:105630000023012200932000E36DFFF7B7FD00284F
:1056400044D0C3689B075ED10389002B58D1E36E19
:10565000002B25D01A001B68002BFBD1106068239B
:105660000022E2522022E36D40680133E365638B40
:1056700013436383FEF7FAFD6623E25A801880B273
:10568000E052002802D1002002B070BD236F00203C
:10569000002BF9D1E36E002BF6D11C48FBF77AFC06
:1056A000E066DCE7EB6801201E7B5B7B1B021E4390
:1056B000FDF738FE3043EA6883B21B0A1073537358
:1056C0002022638B002013436383DDE78022638BFA
:1056D0000F491343842263838B5A013801338B5261
:1056E000D2E78022638B012013438422084963831D
:1056F0008B5A404201338B52C6E70648FBF74AFCFF
:105700000548FBF747FC0548FBF744FC2C2B011030
:10571000543B0020CC2A0110002B0110E82A011074
:10572000F0B5C646050000B5002841D0026F002A3A
:1057300039D01400636826689B7B002E07D0012BAC
:1057400031D13400636826689B7B002EF7D1012B92
:1057500029D1EB6EE16823608023EA666A8B1B0126
:1057600013432E676B834A7908798B7912020243BF
:10577000C8791B041A4300061043FDF7D7FD23899F
:1057800007009846E3684744587B1A7B00021043A1
:10579000FDF7C8FD032303405A1E9341DB19002087
:1057A000EB646E6301E00620404280BCB846F0BD69
:1057B0000148FBF7EFFBC046542B0110F0B55746EC
:1057C000DE464E464546E0B583B01F000CAB904622
:1057D00004CB01901B8808009B460EAB1B889146AA
:1057E0009A46002F4BD0002A4CD0FDF79FFDA022F7
:1057F0000500142122209200FEF726FC061E37D059
:105800004389132B41D944685846FDF78BFD20701E
:10581000000A60705046FDF785FD2B0AA0702571C7
:10582000000A63712B0C2D0EE070A3714046E571E8
:10583000FDF77CFD030A20726372030C000EA37255
:10584000E0721348FDF76EFD2073000A6073114883
:10585000FDF768FD0023A073000AE07323746374EE
:10586000A374E3743A004B4631000198FFF71AFD28
:1058700003B0F0BCBB46B246A946A046F0BD064800
:10588000FBF788FB0548FBF785FB0548FBF782FB28
:10589000145000002DA00000782B0110942B011053
:1058A000442A011010B5041E20D0006DFDF73EFD06
:1058B000002102002000FFF755FD011E0FD0231D1F
:1058C00022002000FFF7EEFC638B002803D10322A7
:1058D0009343638310BD032213436383FAE70322D8
:1058E0000220638B404213436383F3E70148FBF7D5
:1058F00051FBC046B02B0110F0B5DE4657464E4670
:105900004546E0B5040087B0002800D11CE2037DC5
:10591000012B00D115E2CB4B1B68834200D1F2E191
:10592000C56E002D34D04823C65A1833C75A031DFC
:10593000007A9946002800D0E7E1180002F0F0FC58
:1059400082465346002B00D1F2E12368002B02D19E
:1059500053465B682360331CBE4200D93B1CE96898
:105960009FB24B7908798A791B020343C8791204E4
:10597000134300061843FDF7D9FC2B89626C9B1A70
:105980001B18BB4213D96023E35ABB4200D12CE160
:10599000628B930700D524E1802300209A43628321
:1059A00007B0F0BCBB46B246A946A046F0BDA12355
:1059B0000022E254236F002B00D126E11A001B685D
:1059C000002BFBD190464346B8461F00C8E0EE6866
:1059D0006B689B7B9B46012B5FD1606AFDF7A6FC41
:1059E000030A30727372030C000EB372F072608D92
:1059F000EE68FDF797FC626AB07394465A46000A57
:105A0000F073638DEE686344E362AB7A1A4200D0B0
:105A10001EE114239B46B3443022A35E002B01DA1F
:105A200000232386636B002B00D1F8E0686843688D
:105A30004660F21A438992B29B1A438103899A1AEB
:105A4000002392B2028133747374A97A04338900FB
:105A50000B401433F3189B4500D06FE14B460621F1
:105A600000932300FDF72CFF78223074764B000A58
:105A700070749B5A744901338B525246E37A6868BA
:105A8000029206220192A27A210000924A4602F076
:105A900085FC002800D046E1EE682B68E366237D94
:105AA000022B03D00322638B934363837379307992
:105AB000B2791B020343F079120413430006184322
:105AC000FDF734FC2B8906009B46EB685E44587B4F
:105AD0001A7B00021043FDF725FC03231840431EE8
